{"abi":[{"inputs":[{"internalType":"uint256","name":"minimum","type":"uint256"},{"internalType":"string","name":"heading","type":"string"},{"internalType":"string","name":"desc","type":"string"}],"name":"createCampaign","outputs":[],"stateMutability":"nonpayable","type":"function"},{"inputs":[{"internalType":"uint256","name":"","type":"uint256"}],"name":"deployedCampaigns","outputs":[{"internalType":"address","name":"","type":"address"}],"stateMutability":"view","type":"function"},{"inputs":[],"name":"getDeployedCampaigns","outputs":[{"internalType":"address[]","name":"","type":"address[]"}],"stateMutability":"view","type":"function"}],"evm":{"bytecode":{"linkReferences":{},"object":"608060405234801561001057600080fd5b506121e3806100206000396000f3fe60806040523480156200001157600080fd5b5060043610620000465760003560e01c8063339d50a5146200004b5780634acb9d4f1462000081578063fad4dee314620000a3575b600080fd5b6200006960048036038101906200006391906200029c565b620000c3565b60405162000078919062000313565b60405180910390f35b6200008b62000103565b6040516200009a9190620003fe565b60405180910390f35b620000c16004803603810190620000bb919062000584565b62000193565b005b60008181548110620000d457600080fd5b906000526020600020016000915054906101000a900473ffffffffffffffffffffffffffffffffffffffff1681565b606060008054806020026020016040519081016040528092919081815260200182805480156200018957602002820191906000526020600020905b8160009054906101000a900473ffffffffffffffffffffffffffffffffffffffff1673ffffffffffffffffffffffffffffffffffffffff16815260200190600101908083116200013e575b5050505050905090565b600083838333604051620001a7906200023f565b620001b69493929190620006b8565b604051809103906000f080158015620001d3573d6000803e3d6000fd5b5090506000819080600181540180825580915050600190039060005260206000200160009091909190916101000a81548173ffffffffffffffffffffffffffffffffffffffff021916908373ffffffffffffffffffffffffffffffffffffffff16021790555050505050565b611a9a806200071483390190565b6000604051905090565b600080fd5b600080fd5b6000819050919050565b620002768162000261565b81146200028257600080fd5b50565b60008135905062000296816200026b565b92915050565b600060208284031215620002b557620002b462000257565b5b6000620002c58482850162000285565b91505092915050565b600073ffffffffffffffffffffffffffffffffffffffff82169050919050565b6000620002fb82620002ce565b9050919050565b6200030d81620002ee565b82525050565b60006020820190506200032a600083018462000302565b92915050565b600081519050919050565b600082825260208201905092915050565b6000819050602082019050919050565b6200036781620002ee565b82525050565b60006200037b83836200035c565b60208301905092915050565b6000602082019050919050565b6000620003a18262000330565b620003ad81856200033b565b9350620003ba836200034c565b8060005b83811015620003f1578151620003d588826200036d565b9750620003e28362000387565b925050600181019050620003be565b5085935050505092915050565b600060208201905081810360008301526200041a818462000394565b905092915050565b600080fd5b600080fd5b6000601f19601f8301169050919050565b7f4e487b7100000000000000000000000000000000000000000000000000000000600052604160045260246000fd5b62000477826200042c565b810181811067ffffffffffffffff821117156200049957620004986200043d565b5b80604052505050565b6000620004ae6200024d565b9050620004bc82826200046c565b919050565b600067ffffffffffffffff821115620004df57620004de6200043d565b5b620004ea826200042c565b9050602081019050919050565b82818337600083830152505050565b60006200051d6200051784620004c1565b620004a2565b9050828152602081018484840111156200053c576200053b62000427565b5b62000549848285620004f7565b509392505050565b600082601f83011262000569576200056862000422565b5b81356200057b84826020860162000506565b91505092915050565b600080600060608486031215620005a0576200059f62000257565b5b6000620005b08682870162000285565b935050602084013567ffffffffffffffff811115620005d457620005d36200025c565b5b620005e28682870162000551565b925050604084013567ffffffffffffffff8111156200060657620006056200025c565b5b620006148682870162000551565b9150509250925092565b620006298162000261565b82525050565b600081519050919050565b600082825260208201905092915050565b60005b838110156200066b5780820151818401526020810190506200064e565b60008484015250505050565b600062000684826200062f565b6200069081856200063a565b9350620006a28185602086016200064b565b620006ad816200042c565b840191505092915050565b6000608082019050620006cf60008301876200061e565b8181036020830152620006e3818662000677565b90508181036040830152620006f9818562000677565b90506200070a606083018462000302565b9594505050505056fe60806040523480156200001157600080fd5b5060405162001a9a38038062001a9a8339818101604052810190620000379190620002e0565b80600160006101000a81548173ffffffffffffffffffffffffffffffffffffffff021916908373ffffffffffffffffffffffffffffffffffffffff160217905550836002819055508260039081620000909190620005d1565b508160049081620000a29190620005d1565b5050505050620006b8565b6000604051905090565b600080fd5b600080fd5b6000819050919050565b620000d681620000c1565b8114620000e257600080fd5b50565b600081519050620000f681620000cb565b92915050565b600080fd5b600080fd5b6000601f19601f8301169050919050565b7f4e487b7100000000000000000000000000000000000000000000000000000000600052604160045260246000fd5b620001518262000106565b810181811067ffffffffffffffff8211171562000173576200017262000117565b5b80604052505050565b600062000188620000ad565b905062000196828262000146565b919050565b600067ffffffffffffffff821115620001b957620001b862000117565b5b620001c48262000106565b9050602081019050919050565b60005b83811015620001f1578082015181840152602081019050620001d4565b60008484015250505050565b6000620002146200020e846200019b565b6200017c565b90508281526020810184848401111562000233576200023262000101565b5b62000240848285620001d1565b509392505050565b600082601f83011262000260576200025f620000fc565b5b815162000272848260208601620001fd565b91505092915050565b600073ffffffffffffffffffffffffffffffffffffffff82169050919050565b6000620002a8826200027b565b9050919050565b620002ba816200029b565b8114620002c657600080fd5b50565b600081519050620002da81620002af565b92915050565b60008060008060808587031215620002fd57620002fc620000b7565b5b60006200030d87828801620000e5565b945050602085015167ffffffffffffffff811115620003315762000330620000bc565b5b6200033f8782880162000248565b935050604085015167ffffffffffffffff811115620003635762000362620000bc565b5b620003718782880162000248565b92505060606200038487828801620002c9565b91505092959194509250565b600081519050919050565b7f4e487b7100000000000000000000000000000000000000000000000000000000600052602260045260246000fd5b60006002820490506001821680620003e357607f821691505b602082108103620003f957620003f86200039b565b5b50919050565b60008190508160005260206000209050919050565b60006020601f8301049050919050565b600082821b905092915050565b600060088302620004637fffffffffffffffffffffffffffffffffffffffffffffffffffffffffffffffff8262000424565b6200046f868362000424565b95508019841693508086168417925050509392505050565b6000819050919050565b6000620004b2620004ac620004a684620000c1565b62000487565b620000c1565b9050919050565b6000819050919050565b620004ce8362000491565b620004e6620004dd82620004b9565b84845462000431565b825550505050565b600090565b620004fd620004ee565b6200050a818484620004c3565b505050565b5b81811015620005325762000526600082620004f3565b60018101905062000510565b5050565b601f82111562000581576200054b81620003ff565b620005568462000414565b8101602085101562000566578190505b6200057e620005758562000414565b8301826200050f565b50505b505050565b600082821c905092915050565b6000620005a66000198460080262000586565b1980831691505092915050565b6000620005c1838362000593565b9150826002028217905092915050565b620005dc8262000390565b67ffffffffffffffff811115620005f857620005f762000117565b5b620006048254620003ca565b6200061182828562000536565b600060209050601f83116001811462000649576000841562000634578287015190505b620006408582620005b3565b865550620006b0565b601f1984166200065986620003ff565b60005b8281101562000683578489015182556001820191506020850194506020810190506200065c565b86831015620006a357848901516200069f601f89168262000593565b8355505b6001600288020188555050505b505050505050565b6113d280620006c86000396000f3fe6080604052600436106100c25760003560e01c80637284e4161161007f5780638a9cfd55116100595780638a9cfd5514610276578063937e09b11461029f578063d7bb99ba146102ca578063d7d1bbdb146102d4576100c2565b80637284e416146101df57806381d12c581461020a57806382fde0931461024b576100c2565b806303441006146100c75780630a144391146100f05780633410452a1461012d5780634051ddac14610158578063481c6a75146101895780634a79d50c146101b4575b600080fd5b3480156100d357600080fd5b506100ee60048036038101906100e99190610b49565b6102fd565b005b3480156100fc57600080fd5b5061011760048036038101906101129190610bd4565b610447565b6040516101249190610c1c565b60405180910390f35b34801561013957600080fd5b50610142610467565b60405161014f9190610c46565b60405180910390f35b34801561016457600080fd5b5061016d610473565b6040516101809796959493929190610d00565b60405180910390f35b34801561019557600080fd5b5061019e6105e1565b6040516101ab9190610d7d565b60405180910390f35b3480156101c057600080fd5b506101c9610607565b6040516101d69190610d98565b60405180910390f35b3480156101eb57600080fd5b506101f4610695565b6040516102019190610d98565b60405180910390f35b34801561021657600080fd5b50610231600480360381019061022c9190610b49565b610723565b604051610242959493929190610dba565b60405180910390f35b34801561025757600080fd5b5061026061081e565b60405161026d9190610c46565b60405180910390f35b34801561028257600080fd5b5061029d60048036038101906102989190610f49565b610824565b005b3480156102ab57600080fd5b506102b461092c565b6040516102c19190610c46565b60405180910390f35b6102d2610932565b005b3480156102e057600080fd5b506102fb60048036038101906102f69190610b49565b6109b3565b005b600160009054906101000a900473ffffffffffffffffffffffffffffffffffffffff1673ffffffffffffffffffffffffffffffffffffffff163373ffffffffffffffffffffffffffffffffffffffff161461035757600080fd5b600080828154811061036c5761036b610fb8565b5b90600052602060002090600502019050600260065461038b9190611045565b8160030154101561039b57600080fd5b8060020160149054906101000a900460ff16156103b757600080fd5b8060020160009054906101000a900473ffffffffffffffffffffffffffffffffffffffff1673ffffffffffffffffffffffffffffffffffffffff166108fc82600101549081150290604051600060405180830381858888f19350505050158015610425573d6000803e3d6000fd5b5060018160020160146101000a81548160ff0219169083151502179055505050565b60056020528060005260406000206000915054906101000a900460ff1681565b60008080549050905090565b600080600080600060608060025447600080549050600654600160009054906101000a900473ffffffffffffffffffffffffffffffffffffffff16600360048180546104be906110a5565b80601f01602080910402602001604051908101604052809291908181526020018280546104ea906110a5565b80156105375780601f1061050c57610100808354040283529160200191610537565b820191906000526020600020905b81548152906001019060200180831161051a57829003601f168201915b5050505050915080805461054a906110a5565b80601f0160208091040260200160405190810160405280929190818152602001828054610576906110a5565b80156105c35780601f10610598576101008083540402835291602001916105c3565b820191906000526020600020905b8154815290600101906020018083116105a657829003601f168201915b50505050509050965096509650965096509650965090919293949596565b600160009054906101000a900473ffffffffffffffffffffffffffffffffffffffff1681565b60038054610614906110a5565b80601f0160208091040260200160405190810160405280929190818152602001828054610640906110a5565b801561068d5780601f106106625761010080835404028352916020019161068d565b820191906000526020600020905b81548152906001019060200180831161067057829003601f168201915b505050505081565b600480546106a2906110a5565b80601f01602080910402602001604051908101604052809291908181526020018280546106ce906110a5565b801561071b5780601f106106f05761010080835404028352916020019161071b565b820191906000526020600020905b8154815290600101906020018083116106fe57829003601f168201915b505050505081565b6000818154811061073357600080fd5b9060005260206000209060050201600091509050806000018054610756906110a5565b80601f0160208091040260200160405190810160405280929190818152602001828054610782906110a5565b80156107cf5780601f106107a4576101008083540402835291602001916107cf565b820191906000526020600020905b8154815290600101906020018083116107b257829003601f168201915b5050505050908060010154908060020160009054906101000a900473ffffffffffffffffffffffffffffffffffffffff16908060020160149054906101000a900460ff16908060030154905085565b60065481565b600160009054906101000a900473ffffffffffffffffffffffffffffffffffffffff1673ffffffffffffffffffffffffffffffffffffffff163373ffffffffffffffffffffffffffffffffffffffff161461087e57600080fd5b6000806001816001815401808255809150500390600052602060002090600502019050838160000190816108b29190611282565b50828160010181905550818160020160006101000a81548173ffffffffffffffffffffffffffffffffffffffff021916908373ffffffffffffffffffffffffffffffffffffffff16021790555060008160020160146101000a81548160ff0219169083151502179055506000816003018190555050505050565b60025481565b60025434101561094157600080fd5b6001600560003373ffffffffffffffffffffffffffffffffffffffff1673ffffffffffffffffffffffffffffffffffffffff16815260200190815260200160002060006101000a81548160ff021916908315150217905550600660008154809291906109ac90611354565b9190505550565b60008082815481106109c8576109c7610fb8565b5b90600052602060002090600502019050600560003373ffffffffffffffffffffffffffffffffffffffff1673ffffffffffffffffffffffffffffffffffffffff16815260200190815260200160002060009054906101000a900460ff16610a2e57600080fd5b8060040160003373ffffffffffffffffffffffffffffffffffffffff1673ffffffffffffffffffffffffffffffffffffffff16815260200190815260200160002060009054906101000a900460ff1615610a8757600080fd5b60018160040160003373ffffffffffffffffffffffffffffffffffffffff1673ffffffffffffffffffffffffffffffffffffffff16815260200190815260200160002060006101000a81548160ff021916908315150217905550806003016000815480929190610af690611354565b91905055505050565b6000604051905090565b600080fd5b600080fd5b6000819050919050565b610b2681610b13565b8114610b3157600080fd5b50565b600081359050610b4381610b1d565b92915050565b600060208284031215610b5f57610b5e610b09565b5b6000610b6d84828501610b34565b91505092915050565b600073ffffffffffffffffffffffffffffffffffffffff82169050919050565b6000610ba182610b76565b9050919050565b610bb181610b96565b8114610bbc57600080fd5b50565b600081359050610bce81610ba8565b92915050565b600060208284031215610bea57610be9610b09565b5b6000610bf884828501610bbf565b91505092915050565b60008115159050919050565b610c1681610c01565b82525050565b6000602082019050610c316000830184610c0d565b92915050565b610c4081610b13565b82525050565b6000602082019050610c5b6000830184610c37565b92915050565b610c6a81610b96565b82525050565b600081519050919050565b600082825260208201905092915050565b60005b83811015610caa578082015181840152602081019050610c8f565b60008484015250505050565b6000601f19601f8301169050919050565b6000610cd282610c70565b610cdc8185610c7b565b9350610cec818560208601610c8c565b610cf581610cb6565b840191505092915050565b600060e082019050610d15600083018a610c37565b610d226020830189610c37565b610d2f6040830188610c37565b610d3c6060830187610c37565b610d496080830186610c61565b81810360a0830152610d5b8185610cc7565b905081810360c0830152610d6f8184610cc7565b905098975050505050505050565b6000602082019050610d926000830184610c61565b92915050565b60006020820190508181036000830152610db28184610cc7565b905092915050565b600060a0820190508181036000830152610dd48188610cc7565b9050610de36020830187610c37565b610df06040830186610c61565b610dfd6060830185610c0d565b610e0a6080830184610c37565b9695505050505050565b600080fd5b600080fd5b7f4e487b7100000000000000000000000000000000000000000000000000000000600052604160045260246000fd5b610e5682610cb6565b810181811067ffffffffffffffff82111715610e7557610e74610e1e565b5b80604052505050565b6000610e88610aff565b9050610e948282610e4d565b919050565b600067ffffffffffffffff821115610eb457610eb3610e1e565b5b610ebd82610cb6565b9050602081019050919050565b82818337600083830152505050565b6000610eec610ee784610e99565b610e7e565b905082815260208101848484011115610f0857610f07610e19565b5b610f13848285610eca565b509392505050565b600082601f830112610f3057610f2f610e14565b5b8135610f40848260208601610ed9565b91505092915050565b600080600060608486031215610f6257610f61610b09565b5b600084013567ffffffffffffffff811115610f8057610f7f610b0e565b5b610f8c86828701610f1b565b9350506020610f9d86828701610b34565b9250506040610fae86828701610bbf565b9150509250925092565b7f4e487b7100000000000000000000000000000000000000000000000000000000600052603260045260246000fd5b7f4e487b7100000000000000000000000000000000000000000000000000000000600052601260045260246000fd5b7f4e487b7100000000000000000000000000000000000000000000000000000000600052601160045260246000fd5b600061105082610b13565b915061105b83610b13565b92508261106b5761106a610fe7565b5b828204905092915050565b7f4e487b7100000000000000000000000000000000000000000000000000000000600052602260045260246000fd5b600060028204905060018216806110bd57607f821691505b6020821081036110d0576110cf611076565b5b50919050565b60008190508160005260206000209050919050565b60006020601f8301049050919050565b600082821b905092915050565b6000600883026111387fffffffffffffffffffffffffffffffffffffffffffffffffffffffffffffffff826110fb565b61114286836110fb565b95508019841693508086168417925050509392505050565b6000819050919050565b600061117f61117a61117584610b13565b61115a565b610b13565b9050919050565b6000819050919050565b61119983611164565b6111ad6111a582611186565b848454611108565b825550505050565b600090565b6111c26111b5565b6111cd818484611190565b505050565b5b818110156111f1576111e66000826111ba565b6001810190506111d3565b5050565b601f82111561123657611207816110d6565b611210846110eb565b8101602085101561121f578190505b61123361122b856110eb565b8301826111d2565b50505b505050565b600082821c905092915050565b60006112596000198460080261123b565b1980831691505092915050565b60006112728383611248565b9150826002028217905092915050565b61128b82610c70565b67ffffffffffffffff8111156112a4576112a3610e1e565b5b6112ae82546110a5565b6112b98282856111f5565b600060209050601f8311600181146112ec57600084156112da578287015190505b6112e48582611266565b86555061134c565b601f1984166112fa866110d6565b60005b82811015611322578489015182556001820191506020850194506020810190506112fd565b8683101561133f578489015161133b601f891682611248565b8355505b6001600288020188555050505b505050505050565b600061135f82610b13565b91507fffffffffffffffffffffffffffffffffffffffffffffffffffffffffffffffff820361139157611390611016565b5b60018201905091905056fea26469706673582212202c1e55c8102ae14bbdf8f8a0a7cf52fbd4c149b657c346706aa23188e1a39edf64736f6c63430008110033a26469706673582212204c7b2822d24ad158a2ca1274f332b799a8d224300eb894e5752af734b6d37c1364736f6c63430008110033","opcodes":"PUSH1 0x80 PUSH1 0x40 MSTORE CALLVALUE DUP1 ISZERO PUSH2 0x10 JUMPI PUSH1 0x0 DUP1 REVERT JUMPDEST POP PUSH2 0x21E3 DUP1 PUSH2 0x20 PUSH1 0x0 CODECOPY PUSH1 0x0 RETURN INVALID PUSH1 0x80 PUSH1 0x40 MSTORE CALLVALUE DUP1 ISZERO PUSH3 0x11 JUMPI PUSH1 0x0 DUP1 REVERT JUMPDEST POP PUSH1 0x4 CALLDATASIZE LT PUSH3 0x46 JUMPI PUSH1 0x0 CALLDATALOAD PUSH1 0xE0 SHR DUP1 PUSH4 0x339D50A5 EQ PUSH3 0x4B JUMPI DUP1 PUSH4 0x4ACB9D4F EQ PUSH3 0x81 JUMPI DUP1 PUSH4 0xFAD4DEE3 EQ PUSH3 0xA3 JUMPI JUMPDEST PUSH1 0x0 DUP1 REVERT JUMPDEST PUSH3 0x69 PUSH1 0x4 DUP1 CALLDATASIZE SUB DUP2 ADD SWAP1 PUSH3 0x63 SWAP2 SWAP1 PUSH3 0x29C JUMP JUMPDEST PUSH3 0xC3 JUMP JUMPDEST PUSH1 0x40 MLOAD PUSH3 0x78 SWAP2 SWAP1 PUSH3 0x313 JUMP JUMPDEST PUSH1 0x40 MLOAD DUP1 SWAP2 SUB SWAP1 RETURN JUMPDEST PUSH3 0x8B PUSH3 0x103 JUMP JUMPDEST PUSH1 0x40 MLOAD PUSH3 0x9A SWAP2 SWAP1 PUSH3 0x3FE JUMP JUMPDEST PUSH1 0x40 MLOAD DUP1 SWAP2 SUB SWAP1 RETURN JUMPDEST PUSH3 0xC1 PUSH1 0x4 DUP1 CALLDATASIZE SUB DUP2 ADD SWAP1 PUSH3 0xBB SWAP2 SWAP1 PUSH3 0x584 JUMP JUMPDEST PUSH3 0x193 JUMP JUMPDEST STOP JUMPDEST PUSH1 0x0 DUP2 DUP2 SLOAD DUP2 LT PUSH3 0xD4 JUMPI PUSH1 0x0 DUP1 REVERT JUMPDEST SWAP1 PUSH1 0x0 MSTORE PUSH1 0x20 PUSH1 0x0 KECCAK256 ADD PUSH1 0x0 SWAP2 POP SLOAD SWAP1 PUSH2 0x100 EXP SWAP1 DIV PUSH20 0xFFFFFFFFFFFFFFFFFFFFFFFFFFFFFFFFFFFFFFFF AND DUP2 JUMP JUMPDEST PUSH1 0x60 PUSH1 0x0 DUP1 SLOAD DUP1 PUSH1 0x20 MUL PUSH1 0x20 ADD PUSH1 0x40 MLOAD SWAP1 DUP2 ADD PUSH1 0x40 MSTORE DUP1 SWAP3 SWAP2 SWAP1 DUP2 DUP2 MSTORE PUSH1 0x20 ADD DUP3 DUP1 SLOAD DUP1 ISZERO PUSH3 0x189 JUMPI PUSH1 0x20 MUL DUP3 ADD SWAP2 SWAP1 PUSH1 0x0 MSTORE PUSH1 0x20 PUSH1 0x0 KECCAK256 SWAP1 JUMPDEST DUP2 PUSH1 0x0 SWAP1 SLOAD SWAP1 PUSH2 0x100 EXP SWAP1 DIV PUSH20 0xFFFFFFFFFFFFFFFFFFFFFFFFFFFFFFFFFFFFFFFF AND PUSH20 0xFFFFFFFFFFFFFFFFFFFFFFFFFFFFFFFFFFFFFFFF AND DUP2 MSTORE PUSH1 0x20 ADD SWAP1 PUSH1 0x1 ADD SWAP1 DUP1 DUP4 GT PUSH3 0x13E JUMPI JUMPDEST POP POP POP POP POP SWAP1 POP SWAP1 JUMP JUMPDEST PUSH1 0x0 DUP4 DUP4 DUP4 CALLER PUSH1 0x40 MLOAD PUSH3 0x1A7 SWAP1 PUSH3 0x23F JUMP JUMPDEST PUSH3 0x1B6 SWAP5 SWAP4 SWAP3 SWAP2 SWAP1 PUSH3 0x6B8 JUMP JUMPDEST PUSH1 0x40 MLOAD DUP1 SWAP2 SUB SWAP1 PUSH1 0x0 CREATE DUP1 ISZERO DUP1 ISZERO PUSH3 0x1D3 JUMPI RETURNDATASIZE PUSH1 0x0 DUP1 RETURNDATACOPY RETURNDATASIZE PUSH1 0x0 REVERT JUMPDEST POP SWAP1 POP PUSH1 0x0 DUP2 SWAP1 DUP1 PUSH1 0x1 DUP2 SLOAD ADD DUP1 DUP3 SSTORE DUP1 SWAP2 POP POP PUSH1 0x1 SWAP1 SUB SWAP1 PUSH1 0x0 MSTORE PUSH1 0x20 PUSH1 0x0 KECCAK256 ADD PUSH1 0x0 SWAP1 SWAP2 SWAP1 SWAP2 SWAP1 SWAP2 PUSH2 0x100 EXP DUP2 SLOAD DUP2 PUSH20 0xFFFFFFFFFFFFFFFFFFFFFFFFFFFFFFFFFFFFFFFF MUL NOT AND SWAP1 DUP4 PUSH20 0xFFFFFFFFFFFFFFFFFFFFFFFFFFFFFFFFFFFFFFFF AND MUL OR SWAP1 SSTORE POP POP POP POP POP JUMP JUMPDEST PUSH2 0x1A9A DUP1 PUSH3 0x714 DUP4 CODECOPY ADD SWAP1 JUMP JUMPDEST PUSH1 0x0 PUSH1 0x40 MLOAD SWAP1 POP SWAP1 JUMP JUMPDEST PUSH1 0x0 DUP1 REVERT JUMPDEST PUSH1 0x0 DUP1 REVERT JUMPDEST PUSH1 0x0 DUP2 SWAP1 POP SWAP2 SWAP1 POP JUMP JUMPDEST PUSH3 0x276 DUP2 PUSH3 0x261 JUMP JUMPDEST DUP2 EQ PUSH3 0x282 JUMPI PUSH1 0x0 DUP1 REVERT JUMPDEST POP JUMP JUMPDEST PUSH1 0x0 DUP2 CALLDATALOAD SWAP1 POP PUSH3 0x296 DUP2 PUSH3 0x26B JUMP JUMPDEST SWAP3 SWAP2 POP POP JUMP JUMPDEST PUSH1 0x0 PUSH1 0x20 DUP3 DUP5 SUB SLT ISZERO PUSH3 0x2B5 JUMPI PUSH3 0x2B4 PUSH3 0x257 JUMP JUMPDEST JUMPDEST PUSH1 0x0 PUSH3 0x2C5 DUP5 DUP3 DUP6 ADD PUSH3 0x285 JUMP JUMPDEST SWAP2 POP POP SWAP3 SWAP2 POP POP JUMP JUMPDEST PUSH1 0x0 PUSH20 0xFFFFFFFFFFFFFFFFFFFFFFFFFFFFFFFFFFFFFFFF DUP3 AND SWAP1 POP SWAP2 SWAP1 POP JUMP JUMPDEST PUSH1 0x0 PUSH3 0x2FB DUP3 PUSH3 0x2CE JUMP JUMPDEST SWAP1 POP SWAP2 SWAP1 POP JUMP JUMPDEST PUSH3 0x30D DUP2 PUSH3 0x2EE JUMP JUMPDEST DUP3 MSTORE POP POP JUMP JUMPDEST PUSH1 0x0 PUSH1 0x20 DUP3 ADD SWAP1 POP PUSH3 0x32A PUSH1 0x0 DUP4 ADD DUP5 PUSH3 0x302 JUMP JUMPDEST SWAP3 SWAP2 POP POP JUMP JUMPDEST PUSH1 0x0 DUP2 MLOAD SWAP1 POP SWAP2 SWAP1 POP JUMP JUMPDEST PUSH1 0x0 DUP3 DUP3 MSTORE PUSH1 0x20 DUP3 ADD SWAP1 POP SWAP3 SWAP2 POP POP JUMP JUMPDEST PUSH1 0x0 DUP2 SWAP1 POP PUSH1 0x20 DUP3 ADD SWAP1 POP SWAP2 SWAP1 POP JUMP JUMPDEST PUSH3 0x367 DUP2 PUSH3 0x2EE JUMP JUMPDEST DUP3 MSTORE POP POP JUMP JUMPDEST PUSH1 0x0 PUSH3 0x37B DUP4 DUP4 PUSH3 0x35C JUMP JUMPDEST PUSH1 0x20 DUP4 ADD SWAP1 POP SWAP3 SWAP2 POP POP JUMP JUMPDEST PUSH1 0x0 PUSH1 0x20 DUP3 ADD SWAP1 POP SWAP2 SWAP1 POP JUMP JUMPDEST PUSH1 0x0 PUSH3 0x3A1 DUP3 PUSH3 0x330 JUMP JUMPDEST PUSH3 0x3AD DUP2 DUP6 PUSH3 0x33B JUMP JUMPDEST SWAP4 POP PUSH3 0x3BA DUP4 PUSH3 0x34C JUMP JUMPDEST DUP1 PUSH1 0x0 JUMPDEST DUP4 DUP2 LT ISZERO PUSH3 0x3F1 JUMPI DUP2 MLOAD PUSH3 0x3D5 DUP9 DUP3 PUSH3 0x36D JUMP JUMPDEST SWAP8 POP PUSH3 0x3E2 DUP4 PUSH3 0x387 JUMP JUMPDEST SWAP3 POP POP PUSH1 0x1 DUP2 ADD SWAP1 POP PUSH3 0x3BE JUMP JUMPDEST POP DUP6 SWAP4 POP POP POP POP SWAP3 SWAP2 POP POP JUMP JUMPDEST PUSH1 0x0 PUSH1 0x20 DUP3 ADD SWAP1 POP DUP2 DUP2 SUB PUSH1 0x0 DUP4 ADD MSTORE PUSH3 0x41A DUP2 DUP5 PUSH3 0x394 JUMP JUMPDEST SWAP1 POP SWAP3 SWAP2 POP POP JUMP JUMPDEST PUSH1 0x0 DUP1 REVERT JUMPDEST PUSH1 0x0 DUP1 REVERT JUMPDEST PUSH1 0x0 PUSH1 0x1F NOT PUSH1 0x1F DUP4 ADD AND SWAP1 POP SWAP2 SWAP1 POP JUMP JUMPDEST PUSH32 0x4E487B7100000000000000000000000000000000000000000000000000000000 PUSH1 0x0 MSTORE PUSH1 0x41 PUSH1 0x4 MSTORE PUSH1 0x24 PUSH1 0x0 REVERT JUMPDEST PUSH3 0x477 DUP3 PUSH3 0x42C JUMP JUMPDEST DUP2 ADD DUP2 DUP2 LT PUSH8 0xFFFFFFFFFFFFFFFF DUP3 GT OR ISZERO PUSH3 0x499 JUMPI PUSH3 0x498 PUSH3 0x43D JUMP JUMPDEST JUMPDEST DUP1 PUSH1 0x40 MSTORE POP POP POP JUMP JUMPDEST PUSH1 0x0 PUSH3 0x4AE PUSH3 0x24D JUMP JUMPDEST SWAP1 POP PUSH3 0x4BC DUP3 DUP3 PUSH3 0x46C JUMP JUMPDEST SWAP2 SWAP1 POP JUMP JUMPDEST PUSH1 0x0 PUSH8 0xFFFFFFFFFFFFFFFF DUP3 GT ISZERO PUSH3 0x4DF JUMPI PUSH3 0x4DE PUSH3 0x43D JUMP JUMPDEST JUMPDEST PUSH3 0x4EA DUP3 PUSH3 0x42C JUMP JUMPDEST SWAP1 POP PUSH1 0x20 DUP2 ADD SWAP1 POP SWAP2 SWAP1 POP JUMP JUMPDEST DUP3 DUP2 DUP4 CALLDATACOPY PUSH1 0x0 DUP4 DUP4 ADD MSTORE POP POP POP JUMP JUMPDEST PUSH1 0x0 PUSH3 0x51D PUSH3 0x517 DUP5 PUSH3 0x4C1 JUMP JUMPDEST PUSH3 0x4A2 JUMP JUMPDEST SWAP1 POP DUP3 DUP2 MSTORE PUSH1 0x20 DUP2 ADD DUP5 DUP5 DUP5 ADD GT ISZERO PUSH3 0x53C JUMPI PUSH3 0x53B PUSH3 0x427 JUMP JUMPDEST JUMPDEST PUSH3 0x549 DUP5 DUP3 DUP6 PUSH3 0x4F7 JUMP JUMPDEST POP SWAP4 SWAP3 POP POP POP JUMP JUMPDEST PUSH1 0x0 DUP3 PUSH1 0x1F DUP4 ADD SLT PUSH3 0x569 JUMPI PUSH3 0x568 PUSH3 0x422 JUMP JUMPDEST JUMPDEST DUP2 CALLDATALOAD PUSH3 0x57B DUP5 DUP3 PUSH1 0x20 DUP7 ADD PUSH3 0x506 JUMP JUMPDEST SWAP2 POP POP SWAP3 SWAP2 POP POP JUMP JUMPDEST PUSH1 0x0 DUP1 PUSH1 0x0 PUSH1 0x60 DUP5 DUP7 SUB SLT ISZERO PUSH3 0x5A0 JUMPI PUSH3 0x59F PUSH3 0x257 JUMP JUMPDEST JUMPDEST PUSH1 0x0 PUSH3 0x5B0 DUP7 DUP3 DUP8 ADD PUSH3 0x285 JUMP JUMPDEST SWAP4 POP POP PUSH1 0x20 DUP5 ADD CALLDATALOAD PUSH8 0xFFFFFFFFFFFFFFFF DUP2 GT ISZERO PUSH3 0x5D4 JUMPI PUSH3 0x5D3 PUSH3 0x25C JUMP JUMPDEST JUMPDEST PUSH3 0x5E2 DUP7 DUP3 DUP8 ADD PUSH3 0x551 JUMP JUMPDEST SWAP3 POP POP PUSH1 0x40 DUP5 ADD CALLDATALOAD PUSH8 0xFFFFFFFFFFFFFFFF DUP2 GT ISZERO PUSH3 0x606 JUMPI PUSH3 0x605 PUSH3 0x25C JUMP JUMPDEST JUMPDEST PUSH3 0x614 DUP7 DUP3 DUP8 ADD PUSH3 0x551 JUMP JUMPDEST SWAP2 POP POP SWAP3 POP SWAP3 POP SWAP3 JUMP JUMPDEST PUSH3 0x629 DUP2 PUSH3 0x261 JUMP JUMPDEST DUP3 MSTORE POP POP JUMP JUMPDEST PUSH1 0x0 DUP2 MLOAD SWAP1 POP SWAP2 SWAP1 POP JUMP JUMPDEST PUSH1 0x0 DUP3 DUP3 MSTORE PUSH1 0x20 DUP3 ADD SWAP1 POP SWAP3 SWAP2 POP POP JUMP JUMPDEST PUSH1 0x0 JUMPDEST DUP4 DUP2 LT ISZERO PUSH3 0x66B JUMPI DUP1 DUP3 ADD MLOAD DUP2 DUP5 ADD MSTORE PUSH1 0x20 DUP2 ADD SWAP1 POP PUSH3 0x64E JUMP JUMPDEST PUSH1 0x0 DUP5 DUP5 ADD MSTORE POP POP POP POP JUMP JUMPDEST PUSH1 0x0 PUSH3 0x684 DUP3 PUSH3 0x62F JUMP JUMPDEST PUSH3 0x690 DUP2 DUP6 PUSH3 0x63A JUMP JUMPDEST SWAP4 POP PUSH3 0x6A2 DUP2 DUP6 PUSH1 0x20 DUP7 ADD PUSH3 0x64B JUMP JUMPDEST PUSH3 0x6AD DUP2 PUSH3 0x42C JUMP JUMPDEST DUP5 ADD SWAP2 POP POP SWAP3 SWAP2 POP POP JUMP JUMPDEST PUSH1 0x0 PUSH1 0x80 DUP3 ADD SWAP1 POP PUSH3 0x6CF PUSH1 0x0 DUP4 ADD DUP8 PUSH3 0x61E JUMP JUMPDEST DUP2 DUP2 SUB PUSH1 0x20 DUP4 ADD MSTORE PUSH3 0x6E3 DUP2 DUP7 PUSH3 0x677 JUMP JUMPDEST SWAP1 POP DUP2 DUP2 SUB PUSH1 0x40 DUP4 ADD MSTORE PUSH3 0x6F9 DUP2 DUP6 PUSH3 0x677 JUMP JUMPDEST SWAP1 POP PUSH3 0x70A PUSH1 0x60 DUP4 ADD DUP5 PUSH3 0x302 JUMP JUMPDEST SWAP6 SWAP5 POP POP POP POP POP JUMP INVALID PUSH1 0x80 PUSH1 0x40 MSTORE CALLVALUE DUP1 ISZERO PUSH3 0x11 JUMPI PUSH1 0x0 DUP1 REVERT JUMPDEST POP PUSH1 0x40 MLOAD PUSH3 0x1A9A CODESIZE SUB DUP1 PUSH3 0x1A9A DUP4 CODECOPY DUP2 DUP2 ADD PUSH1 0x40 MSTORE DUP2 ADD SWAP1 PUSH3 0x37 SWAP2 SWAP1 PUSH3 0x2E0 JUMP JUMPDEST DUP1 PUSH1 0x1 PUSH1 0x0 PUSH2 0x100 EXP DUP2 SLOAD DUP2 PUSH20 0xFFFFFFFFFFFFFFFFFFFFFFFFFFFFFFFFFFFFFFFF MUL NOT AND SWAP1 DUP4 PUSH20 0xFFFFFFFFFFFFFFFFFFFFFFFFFFFFFFFFFFFFFFFF AND MUL OR SWAP1 SSTORE POP DUP4 PUSH1 0x2 DUP2 SWAP1 SSTORE POP DUP3 PUSH1 0x3 SWAP1 DUP2 PUSH3 0x90 SWAP2 SWAP1 PUSH3 0x5D1 JUMP JUMPDEST POP DUP2 PUSH1 0x4 SWAP1 DUP2 PUSH3 0xA2 SWAP2 SWAP1 PUSH3 0x5D1 JUMP JUMPDEST POP POP POP POP POP PUSH3 0x6B8 JUMP JUMPDEST PUSH1 0x0 PUSH1 0x40 MLOAD SWAP1 POP SWAP1 JUMP JUMPDEST PUSH1 0x0 DUP1 REVERT JUMPDEST PUSH1 0x0 DUP1 REVERT JUMPDEST PUSH1 0x0 DUP2 SWAP1 POP SWAP2 SWAP1 POP JUMP JUMPDEST PUSH3 0xD6 DUP2 PUSH3 0xC1 JUMP JUMPDEST DUP2 EQ PUSH3 0xE2 JUMPI PUSH1 0x0 DUP1 REVERT JUMPDEST POP JUMP JUMPDEST PUSH1 0x0 DUP2 MLOAD SWAP1 POP PUSH3 0xF6 DUP2 PUSH3 0xCB JUMP JUMPDEST SWAP3 SWAP2 POP POP JUMP JUMPDEST PUSH1 0x0 DUP1 REVERT JUMPDEST PUSH1 0x0 DUP1 REVERT JUMPDEST PUSH1 0x0 PUSH1 0x1F NOT PUSH1 0x1F DUP4 ADD AND SWAP1 POP SWAP2 SWAP1 POP JUMP JUMPDEST PUSH32 0x4E487B7100000000000000000000000000000000000000000000000000000000 PUSH1 0x0 MSTORE PUSH1 0x41 PUSH1 0x4 MSTORE PUSH1 0x24 PUSH1 0x0 REVERT JUMPDEST PUSH3 0x151 DUP3 PUSH3 0x106 JUMP JUMPDEST DUP2 ADD DUP2 DUP2 LT PUSH8 0xFFFFFFFFFFFFFFFF DUP3 GT OR ISZERO PUSH3 0x173 JUMPI PUSH3 0x172 PUSH3 0x117 JUMP JUMPDEST JUMPDEST DUP1 PUSH1 0x40 MSTORE POP POP POP JUMP JUMPDEST PUSH1 0x0 PUSH3 0x188 PUSH3 0xAD JUMP JUMPDEST SWAP1 POP PUSH3 0x196 DUP3 DUP3 PUSH3 0x146 JUMP JUMPDEST SWAP2 SWAP1 POP JUMP JUMPDEST PUSH1 0x0 PUSH8 0xFFFFFFFFFFFFFFFF DUP3 GT ISZERO PUSH3 0x1B9 JUMPI PUSH3 0x1B8 PUSH3 0x117 JUMP JUMPDEST JUMPDEST PUSH3 0x1C4 DUP3 PUSH3 0x106 JUMP JUMPDEST SWAP1 POP PUSH1 0x20 DUP2 ADD SWAP1 POP SWAP2 SWAP1 POP JUMP JUMPDEST PUSH1 0x0 JUMPDEST DUP4 DUP2 LT ISZERO PUSH3 0x1F1 JUMPI DUP1 DUP3 ADD MLOAD DUP2 DUP5 ADD MSTORE PUSH1 0x20 DUP2 ADD SWAP1 POP PUSH3 0x1D4 JUMP JUMPDEST PUSH1 0x0 DUP5 DUP5 ADD MSTORE POP POP POP POP JUMP JUMPDEST PUSH1 0x0 PUSH3 0x214 PUSH3 0x20E DUP5 PUSH3 0x19B JUMP JUMPDEST PUSH3 0x17C JUMP JUMPDEST SWAP1 POP DUP3 DUP2 MSTORE PUSH1 0x20 DUP2 ADD DUP5 DUP5 DUP5 ADD GT ISZERO PUSH3 0x233 JUMPI PUSH3 0x232 PUSH3 0x101 JUMP JUMPDEST JUMPDEST PUSH3 0x240 DUP5 DUP3 DUP6 PUSH3 0x1D1 JUMP JUMPDEST POP SWAP4 SWAP3 POP POP POP JUMP JUMPDEST PUSH1 0x0 DUP3 PUSH1 0x1F DUP4 ADD SLT PUSH3 0x260 JUMPI PUSH3 0x25F PUSH3 0xFC JUMP JUMPDEST JUMPDEST DUP2 MLOAD PUSH3 0x272 DUP5 DUP3 PUSH1 0x20 DUP7 ADD PUSH3 0x1FD JUMP JUMPDEST SWAP2 POP POP SWAP3 SWAP2 POP POP JUMP JUMPDEST PUSH1 0x0 PUSH20 0xFFFFFFFFFFFFFFFFFFFFFFFFFFFFFFFFFFFFFFFF DUP3 AND SWAP1 POP SWAP2 SWAP1 POP JUMP JUMPDEST PUSH1 0x0 PUSH3 0x2A8 DUP3 PUSH3 0x27B JUMP JUMPDEST SWAP1 POP SWAP2 SWAP1 POP JUMP JUMPDEST PUSH3 0x2BA DUP2 PUSH3 0x29B JUMP JUMPDEST DUP2 EQ PUSH3 0x2C6 JUMPI PUSH1 0x0 DUP1 REVERT JUMPDEST POP JUMP JUMPDEST PUSH1 0x0 DUP2 MLOAD SWAP1 POP PUSH3 0x2DA DUP2 PUSH3 0x2AF JUMP JUMPDEST SWAP3 SWAP2 POP POP JUMP JUMPDEST PUSH1 0x0 DUP1 PUSH1 0x0 DUP1 PUSH1 0x80 DUP6 DUP8 SUB SLT ISZERO PUSH3 0x2FD JUMPI PUSH3 0x2FC PUSH3 0xB7 JUMP JUMPDEST JUMPDEST PUSH1 0x0 PUSH3 0x30D DUP8 DUP3 DUP9 ADD PUSH3 0xE5 JUMP JUMPDEST SWAP5 POP POP PUSH1 0x20 DUP6 ADD MLOAD PUSH8 0xFFFFFFFFFFFFFFFF DUP2 GT ISZERO PUSH3 0x331 JUMPI PUSH3 0x330 PUSH3 0xBC JUMP JUMPDEST JUMPDEST PUSH3 0x33F DUP8 DUP3 DUP9 ADD PUSH3 0x248 JUMP JUMPDEST SWAP4 POP POP PUSH1 0x40 DUP6 ADD MLOAD PUSH8 0xFFFFFFFFFFFFFFFF DUP2 GT ISZERO PUSH3 0x363 JUMPI PUSH3 0x362 PUSH3 0xBC JUMP JUMPDEST JUMPDEST PUSH3 0x371 DUP8 DUP3 DUP9 ADD PUSH3 0x248 JUMP JUMPDEST SWAP3 POP POP PUSH1 0x60 PUSH3 0x384 DUP8 DUP3 DUP9 ADD PUSH3 0x2C9 JUMP JUMPDEST SWAP2 POP POP SWAP3 SWAP6 SWAP2 SWAP5 POP SWAP3 POP JUMP JUMPDEST PUSH1 0x0 DUP2 MLOAD SWAP1 POP SWAP2 SWAP1 POP JUMP JUMPDEST PUSH32 0x4E487B7100000000000000000000000000000000000000000000000000000000 PUSH1 0x0 MSTORE PUSH1 0x22 PUSH1 0x4 MSTORE PUSH1 0x24 PUSH1 0x0 REVERT JUMPDEST PUSH1 0x0 PUSH1 0x2 DUP3 DIV SWAP1 POP PUSH1 0x1 DUP3 AND DUP1 PUSH3 0x3E3 JUMPI PUSH1 0x7F DUP3 AND SWAP2 POP JUMPDEST PUSH1 0x20 DUP3 LT DUP2 SUB PUSH3 0x3F9 JUMPI PUSH3 0x3F8 PUSH3 0x39B JUMP JUMPDEST JUMPDEST POP SWAP2 SWAP1 POP JUMP JUMPDEST PUSH1 0x0 DUP2 SWAP1 POP DUP2 PUSH1 0x0 MSTORE PUSH1 0x20 PUSH1 0x0 KECCAK256 SWAP1 POP SWAP2 SWAP1 POP JUMP JUMPDEST PUSH1 0x0 PUSH1 0x20 PUSH1 0x1F DUP4 ADD DIV SWAP1 POP SWAP2 SWAP1 POP JUMP JUMPDEST PUSH1 0x0 DUP3 DUP3 SHL SWAP1 POP SWAP3 SWAP2 POP POP JUMP JUMPDEST PUSH1 0x0 PUSH1 0x8 DUP4 MUL PUSH3 0x463 PUSH32 0xFFFFFFFFFFFFFFFFFFFFFFFFFFFFFFFFFFFFFFFFFFFFFFFFFFFFFFFFFFFFFFFF DUP3 PUSH3 0x424 JUMP JUMPDEST PUSH3 0x46F DUP7 DUP4 PUSH3 0x424 JUMP JUMPDEST SWAP6 POP DUP1 NOT DUP5 AND SWAP4 POP DUP1 DUP7 AND DUP5 OR SWAP3 POP POP POP SWAP4 SWAP3 POP POP POP JUMP JUMPDEST PUSH1 0x0 DUP2 SWAP1 POP SWAP2 SWAP1 POP JUMP JUMPDEST PUSH1 0x0 PUSH3 0x4B2 PUSH3 0x4AC PUSH3 0x4A6 DUP5 PUSH3 0xC1 JUMP JUMPDEST PUSH3 0x487 JUMP JUMPDEST PUSH3 0xC1 JUMP JUMPDEST SWAP1 POP SWAP2 SWAP1 POP JUMP JUMPDEST PUSH1 0x0 DUP2 SWAP1 POP SWAP2 SWAP1 POP JUMP JUMPDEST PUSH3 0x4CE DUP4 PUSH3 0x491 JUMP JUMPDEST PUSH3 0x4E6 PUSH3 0x4DD DUP3 PUSH3 0x4B9 JUMP JUMPDEST DUP5 DUP5 SLOAD PUSH3 0x431 JUMP JUMPDEST DUP3 SSTORE POP POP POP POP JUMP JUMPDEST PUSH1 0x0 SWAP1 JUMP JUMPDEST PUSH3 0x4FD PUSH3 0x4EE JUMP JUMPDEST PUSH3 0x50A DUP2 DUP5 DUP5 PUSH3 0x4C3 JUMP JUMPDEST POP POP POP JUMP JUMPDEST JUMPDEST DUP2 DUP2 LT ISZERO PUSH3 0x532 JUMPI PUSH3 0x526 PUSH1 0x0 DUP3 PUSH3 0x4F3 JUMP JUMPDEST PUSH1 0x1 DUP2 ADD SWAP1 POP PUSH3 0x510 JUMP JUMPDEST POP POP JUMP JUMPDEST PUSH1 0x1F DUP3 GT ISZERO PUSH3 0x581 JUMPI PUSH3 0x54B DUP2 PUSH3 0x3FF JUMP JUMPDEST PUSH3 0x556 DUP5 PUSH3 0x414 JUMP JUMPDEST DUP2 ADD PUSH1 0x20 DUP6 LT ISZERO PUSH3 0x566 JUMPI DUP2 SWAP1 POP JUMPDEST PUSH3 0x57E PUSH3 0x575 DUP6 PUSH3 0x414 JUMP JUMPDEST DUP4 ADD DUP3 PUSH3 0x50F JUMP JUMPDEST POP POP JUMPDEST POP POP POP JUMP JUMPDEST PUSH1 0x0 DUP3 DUP3 SHR SWAP1 POP SWAP3 SWAP2 POP POP JUMP JUMPDEST PUSH1 0x0 PUSH3 0x5A6 PUSH1 0x0 NOT DUP5 PUSH1 0x8 MUL PUSH3 0x586 JUMP JUMPDEST NOT DUP1 DUP4 AND SWAP2 POP POP SWAP3 SWAP2 POP POP JUMP JUMPDEST PUSH1 0x0 PUSH3 0x5C1 DUP4 DUP4 PUSH3 0x593 JUMP JUMPDEST SWAP2 POP DUP3 PUSH1 0x2 MUL DUP3 OR SWAP1 POP SWAP3 SWAP2 POP POP JUMP JUMPDEST PUSH3 0x5DC DUP3 PUSH3 0x390 JUMP JUMPDEST PUSH8 0xFFFFFFFFFFFFFFFF DUP2 GT ISZERO PUSH3 0x5F8 JUMPI PUSH3 0x5F7 PUSH3 0x117 JUMP JUMPDEST JUMPDEST PUSH3 0x604 DUP3 SLOAD PUSH3 0x3CA JUMP JUMPDEST PUSH3 0x611 DUP3 DUP3 DUP6 PUSH3 0x536 JUMP JUMPDEST PUSH1 0x0 PUSH1 0x20 SWAP1 POP PUSH1 0x1F DUP4 GT PUSH1 0x1 DUP2 EQ PUSH3 0x649 JUMPI PUSH1 0x0 DUP5 ISZERO PUSH3 0x634 JUMPI DUP3 DUP8 ADD MLOAD SWAP1 POP JUMPDEST PUSH3 0x640 DUP6 DUP3 PUSH3 0x5B3 JUMP JUMPDEST DUP7 SSTORE POP PUSH3 0x6B0 JUMP JUMPDEST PUSH1 0x1F NOT DUP5 AND PUSH3 0x659 DUP7 PUSH3 0x3FF JUMP JUMPDEST PUSH1 0x0 JUMPDEST DUP3 DUP2 LT ISZERO PUSH3 0x683 JUMPI DUP5 DUP10 ADD MLOAD DUP3 SSTORE PUSH1 0x1 DUP3 ADD SWAP2 POP PUSH1 0x20 DUP6 ADD SWAP5 POP PUSH1 0x20 DUP2 ADD SWAP1 POP PUSH3 0x65C JUMP JUMPDEST DUP7 DUP4 LT ISZERO PUSH3 0x6A3 JUMPI DUP5 DUP10 ADD MLOAD PUSH3 0x69F PUSH1 0x1F DUP10 AND DUP3 PUSH3 0x593 JUMP JUMPDEST DUP4 SSTORE POP JUMPDEST PUSH1 0x1 PUSH1 0x2 DUP9 MUL ADD DUP9 SSTORE POP POP POP JUMPDEST POP POP POP POP POP POP JUMP JUMPDEST PUSH2 0x13D2 DUP1 PUSH3 0x6C8 PUSH1 0x0 CODECOPY PUSH1 0x0 RETURN INVALID PUSH1 0x80 PUSH1 0x40 MSTORE PUSH1 0x4 CALLDATASIZE LT PUSH2 0xC2 JUMPI PUSH1 0x0 CALLDATALOAD PUSH1 0xE0 SHR DUP1 PUSH4 0x7284E416 GT PUSH2 0x7F JUMPI DUP1 PUSH4 0x8A9CFD55 GT PUSH2 0x59 JUMPI DUP1 PUSH4 0x8A9CFD55 EQ PUSH2 0x276 JUMPI DUP1 PUSH4 0x937E09B1 EQ PUSH2 0x29F JUMPI DUP1 PUSH4 0xD7BB99BA EQ PUSH2 0x2CA JUMPI DUP1 PUSH4 0xD7D1BBDB EQ PUSH2 0x2D4 JUMPI PUSH2 0xC2 JUMP JUMPDEST DUP1 PUSH4 0x7284E416 EQ PUSH2 0x1DF JUMPI DUP1 PUSH4 0x81D12C58 EQ PUSH2 0x20A JUMPI DUP1 PUSH4 0x82FDE093 EQ PUSH2 0x24B JUMPI PUSH2 0xC2 JUMP JUMPDEST DUP1 PUSH4 0x3441006 EQ PUSH2 0xC7 JUMPI DUP1 PUSH4 0xA144391 EQ PUSH2 0xF0 JUMPI DUP1 PUSH4 0x3410452A EQ PUSH2 0x12D JUMPI DUP1 PUSH4 0x4051DDAC EQ PUSH2 0x158 JUMPI DUP1 PUSH4 0x481C6A75 EQ PUSH2 0x189 JUMPI DUP1 PUSH4 0x4A79D50C EQ PUSH2 0x1B4 JUMPI JUMPDEST PUSH1 0x0 DUP1 REVERT JUMPDEST CALLVALUE DUP1 ISZERO PUSH2 0xD3 JUMPI PUSH1 0x0 DUP1 REVERT JUMPDEST POP PUSH2 0xEE PUSH1 0x4 DUP1 CALLDATASIZE SUB DUP2 ADD SWAP1 PUSH2 0xE9 SWAP2 SWAP1 PUSH2 0xB49 JUMP JUMPDEST PUSH2 0x2FD JUMP JUMPDEST STOP JUMPDEST CALLVALUE DUP1 ISZERO PUSH2 0xFC JUMPI PUSH1 0x0 DUP1 REVERT JUMPDEST POP PUSH2 0x117 PUSH1 0x4 DUP1 CALLDATASIZE SUB DUP2 ADD SWAP1 PUSH2 0x112 SWAP2 SWAP1 PUSH2 0xBD4 JUMP JUMPDEST PUSH2 0x447 JUMP JUMPDEST PUSH1 0x40 MLOAD PUSH2 0x124 SWAP2 SWAP1 PUSH2 0xC1C JUMP JUMPDEST PUSH1 0x40 MLOAD DUP1 SWAP2 SUB SWAP1 RETURN JUMPDEST CALLVALUE DUP1 ISZERO PUSH2 0x139 JUMPI PUSH1 0x0 DUP1 REVERT JUMPDEST POP PUSH2 0x142 PUSH2 0x467 JUMP JUMPDEST PUSH1 0x40 MLOAD PUSH2 0x14F SWAP2 SWAP1 PUSH2 0xC46 JUMP JUMPDEST PUSH1 0x40 MLOAD DUP1 SWAP2 SUB SWAP1 RETURN JUMPDEST CALLVALUE DUP1 ISZERO PUSH2 0x164 JUMPI PUSH1 0x0 DUP1 REVERT JUMPDEST POP PUSH2 0x16D PUSH2 0x473 JUMP JUMPDEST PUSH1 0x40 MLOAD PUSH2 0x180 SWAP8 SWAP7 SWAP6 SWAP5 SWAP4 SWAP3 SWAP2 SWAP1 PUSH2 0xD00 JUMP JUMPDEST PUSH1 0x40 MLOAD DUP1 SWAP2 SUB SWAP1 RETURN JUMPDEST CALLVALUE DUP1 ISZERO PUSH2 0x195 JUMPI PUSH1 0x0 DUP1 REVERT JUMPDEST POP PUSH2 0x19E PUSH2 0x5E1 JUMP JUMPDEST PUSH1 0x40 MLOAD PUSH2 0x1AB SWAP2 SWAP1 PUSH2 0xD7D JUMP JUMPDEST PUSH1 0x40 MLOAD DUP1 SWAP2 SUB SWAP1 RETURN JUMPDEST CALLVALUE DUP1 ISZERO PUSH2 0x1C0 JUMPI PUSH1 0x0 DUP1 REVERT JUMPDEST POP PUSH2 0x1C9 PUSH2 0x607 JUMP JUMPDEST PUSH1 0x40 MLOAD PUSH2 0x1D6 SWAP2 SWAP1 PUSH2 0xD98 JUMP JUMPDEST PUSH1 0x40 MLOAD DUP1 SWAP2 SUB SWAP1 RETURN JUMPDEST CALLVALUE DUP1 ISZERO PUSH2 0x1EB JUMPI PUSH1 0x0 DUP1 REVERT JUMPDEST POP PUSH2 0x1F4 PUSH2 0x695 JUMP JUMPDEST PUSH1 0x40 MLOAD PUSH2 0x201 SWAP2 SWAP1 PUSH2 0xD98 JUMP JUMPDEST PUSH1 0x40 MLOAD DUP1 SWAP2 SUB SWAP1 RETURN JUMPDEST CALLVALUE DUP1 ISZERO PUSH2 0x216 JUMPI PUSH1 0x0 DUP1 REVERT JUMPDEST POP PUSH2 0x231 PUSH1 0x4 DUP1 CALLDATASIZE SUB DUP2 ADD SWAP1 PUSH2 0x22C SWAP2 SWAP1 PUSH2 0xB49 JUMP JUMPDEST PUSH2 0x723 JUMP JUMPDEST PUSH1 0x40 MLOAD PUSH2 0x242 SWAP6 SWAP5 SWAP4 SWAP3 SWAP2 SWAP1 PUSH2 0xDBA JUMP JUMPDEST PUSH1 0x40 MLOAD DUP1 SWAP2 SUB SWAP1 RETURN JUMPDEST CALLVALUE DUP1 ISZERO PUSH2 0x257 JUMPI PUSH1 0x0 DUP1 REVERT JUMPDEST POP PUSH2 0x260 PUSH2 0x81E JUMP JUMPDEST PUSH1 0x40 MLOAD PUSH2 0x26D SWAP2 SWAP1 PUSH2 0xC46 JUMP JUMPDEST PUSH1 0x40 MLOAD DUP1 SWAP2 SUB SWAP1 RETURN JUMPDEST CALLVALUE DUP1 ISZERO PUSH2 0x282 JUMPI PUSH1 0x0 DUP1 REVERT JUMPDEST POP PUSH2 0x29D PUSH1 0x4 DUP1 CALLDATASIZE SUB DUP2 ADD SWAP1 PUSH2 0x298 SWAP2 SWAP1 PUSH2 0xF49 JUMP JUMPDEST PUSH2 0x824 JUMP JUMPDEST STOP JUMPDEST CALLVALUE DUP1 ISZERO PUSH2 0x2AB JUMPI PUSH1 0x0 DUP1 REVERT JUMPDEST POP PUSH2 0x2B4 PUSH2 0x92C JUMP JUMPDEST PUSH1 0x40 MLOAD PUSH2 0x2C1 SWAP2 SWAP1 PUSH2 0xC46 JUMP JUMPDEST PUSH1 0x40 MLOAD DUP1 SWAP2 SUB SWAP1 RETURN JUMPDEST PUSH2 0x2D2 PUSH2 0x932 JUMP JUMPDEST STOP JUMPDEST CALLVALUE DUP1 ISZERO PUSH2 0x2E0 JUMPI PUSH1 0x0 DUP1 REVERT JUMPDEST POP PUSH2 0x2FB PUSH1 0x4 DUP1 CALLDATASIZE SUB DUP2 ADD SWAP1 PUSH2 0x2F6 SWAP2 SWAP1 PUSH2 0xB49 JUMP JUMPDEST PUSH2 0x9B3 JUMP JUMPDEST STOP JUMPDEST PUSH1 0x1 PUSH1 0x0 SWAP1 SLOAD SWAP1 PUSH2 0x100 EXP SWAP1 DIV PUSH20 0xFFFFFFFFFFFFFFFFFFFFFFFFFFFFFFFFFFFFFFFF AND PUSH20 0xFFFFFFFFFFFFFFFFFFFFFFFFFFFFFFFFFFFFFFFF AND CALLER PUSH20 0xFFFFFFFFFFFFFFFFFFFFFFFFFFFFFFFFFFFFFFFF AND EQ PUSH2 0x357 JUMPI PUSH1 0x0 DUP1 REVERT JUMPDEST PUSH1 0x0 DUP1 DUP3 DUP2 SLOAD DUP2 LT PUSH2 0x36C JUMPI PUSH2 0x36B PUSH2 0xFB8 JUMP JUMPDEST JUMPDEST SWAP1 PUSH1 0x0 MSTORE PUSH1 0x20 PUSH1 0x0 KECCAK256 SWAP1 PUSH1 0x5 MUL ADD SWAP1 POP PUSH1 0x2 PUSH1 0x6 SLOAD PUSH2 0x38B SWAP2 SWAP1 PUSH2 0x1045 JUMP JUMPDEST DUP2 PUSH1 0x3 ADD SLOAD LT ISZERO PUSH2 0x39B JUMPI PUSH1 0x0 DUP1 REVERT JUMPDEST DUP1 PUSH1 0x2 ADD PUSH1 0x14 SWAP1 SLOAD SWAP1 PUSH2 0x100 EXP SWAP1 DIV PUSH1 0xFF AND ISZERO PUSH2 0x3B7 JUMPI PUSH1 0x0 DUP1 REVERT JUMPDEST DUP1 PUSH1 0x2 ADD PUSH1 0x0 SWAP1 SLOAD SWAP1 PUSH2 0x100 EXP SWAP1 DIV PUSH20 0xFFFFFFFFFFFFFFFFFFFFFFFFFFFFFFFFFFFFFFFF AND PUSH20 0xFFFFFFFFFFFFFFFFFFFFFFFFFFFFFFFFFFFFFFFF AND PUSH2 0x8FC DUP3 PUSH1 0x1 ADD SLOAD SWAP1 DUP2 ISZERO MUL SWAP1 PUSH1 0x40 MLOAD PUSH1 0x0 PUSH1 0x40 MLOAD DUP1 DUP4 SUB DUP2 DUP6 DUP9 DUP9 CALL SWAP4 POP POP POP POP ISZERO DUP1 ISZERO PUSH2 0x425 JUMPI RETURNDATASIZE PUSH1 0x0 DUP1 RETURNDATACOPY RETURNDATASIZE PUSH1 0x0 REVERT JUMPDEST POP PUSH1 0x1 DUP2 PUSH1 0x2 ADD PUSH1 0x14 PUSH2 0x100 EXP DUP2 SLOAD DUP2 PUSH1 0xFF MUL NOT AND SWAP1 DUP4 ISZERO ISZERO MUL OR SWAP1 SSTORE POP POP POP JUMP JUMPDEST PUSH1 0x5 PUSH1 0x20 MSTORE DUP1 PUSH1 0x0 MSTORE PUSH1 0x40 PUSH1 0x0 KECCAK256 PUSH1 0x0 SWAP2 POP SLOAD SWAP1 PUSH2 0x100 EXP SWAP1 DIV PUSH1 0xFF AND DUP2 JUMP JUMPDEST PUSH1 0x0 DUP1 DUP1 SLOAD SWAP1 POP SWAP1 POP SWAP1 JUMP JUMPDEST PUSH1 0x0 DUP1 PUSH1 0x0 DUP1 PUSH1 0x0 PUSH1 0x60 DUP1 PUSH1 0x2 SLOAD SELFBALANCE PUSH1 0x0 DUP1 SLOAD SWAP1 POP PUSH1 0x6 SLOAD PUSH1 0x1 PUSH1 0x0 SWAP1 SLOAD SWAP1 PUSH2 0x100 EXP SWAP1 DIV PUSH20 0xFFFFFFFFFFFFFFFFFFFFFFFFFFFFFFFFFFFFFFFF AND PUSH1 0x3 PUSH1 0x4 DUP2 DUP1 SLOAD PUSH2 0x4BE SWAP1 PUSH2 0x10A5 JUMP JUMPDEST DUP1 PUSH1 0x1F ADD PUSH1 0x20 DUP1 SWAP2 DIV MUL PUSH1 0x20 ADD PUSH1 0x40 MLOAD SWAP1 DUP2 ADD PUSH1 0x40 MSTORE DUP1 SWAP3 SWAP2 SWAP1 DUP2 DUP2 MSTORE PUSH1 0x20 ADD DUP3 DUP1 SLOAD PUSH2 0x4EA SWAP1 PUSH2 0x10A5 JUMP JUMPDEST DUP1 ISZERO PUSH2 0x537 JUMPI DUP1 PUSH1 0x1F LT PUSH2 0x50C JUMPI PUSH2 0x100 DUP1 DUP4 SLOAD DIV MUL DUP4 MSTORE SWAP2 PUSH1 0x20 ADD SWAP2 PUSH2 0x537 JUMP JUMPDEST DUP3 ADD SWAP2 SWAP1 PUSH1 0x0 MSTORE PUSH1 0x20 PUSH1 0x0 KECCAK256 SWAP1 JUMPDEST DUP2 SLOAD DUP2 MSTORE SWAP1 PUSH1 0x1 ADD SWAP1 PUSH1 0x20 ADD DUP1 DUP4 GT PUSH2 0x51A JUMPI DUP3 SWAP1 SUB PUSH1 0x1F AND DUP3 ADD SWAP2 JUMPDEST POP POP POP POP POP SWAP2 POP DUP1 DUP1 SLOAD PUSH2 0x54A SWAP1 PUSH2 0x10A5 JUMP JUMPDEST DUP1 PUSH1 0x1F ADD PUSH1 0x20 DUP1 SWAP2 DIV MUL PUSH1 0x20 ADD PUSH1 0x40 MLOAD SWAP1 DUP2 ADD PUSH1 0x40 MSTORE DUP1 SWAP3 SWAP2 SWAP1 DUP2 DUP2 MSTORE PUSH1 0x20 ADD DUP3 DUP1 SLOAD PUSH2 0x576 SWAP1 PUSH2 0x10A5 JUMP JUMPDEST DUP1 ISZERO PUSH2 0x5C3 JUMPI DUP1 PUSH1 0x1F LT PUSH2 0x598 JUMPI PUSH2 0x100 DUP1 DUP4 SLOAD DIV MUL DUP4 MSTORE SWAP2 PUSH1 0x20 ADD SWAP2 PUSH2 0x5C3 JUMP JUMPDEST DUP3 ADD SWAP2 SWAP1 PUSH1 0x0 MSTORE PUSH1 0x20 PUSH1 0x0 KECCAK256 SWAP1 JUMPDEST DUP2 SLOAD DUP2 MSTORE SWAP1 PUSH1 0x1 ADD SWAP1 PUSH1 0x20 ADD DUP1 DUP4 GT PUSH2 0x5A6 JUMPI DUP3 SWAP1 SUB PUSH1 0x1F AND DUP3 ADD SWAP2 JUMPDEST POP POP POP POP POP SWAP1 POP SWAP7 POP SWAP7 POP SWAP7 POP SWAP7 POP SWAP7 POP SWAP7 POP SWAP7 POP SWAP1 SWAP2 SWAP3 SWAP4 SWAP5 SWAP6 SWAP7 JUMP JUMPDEST PUSH1 0x1 PUSH1 0x0 SWAP1 SLOAD SWAP1 PUSH2 0x100 EXP SWAP1 DIV PUSH20 0xFFFFFFFFFFFFFFFFFFFFFFFFFFFFFFFFFFFFFFFF AND DUP2 JUMP JUMPDEST PUSH1 0x3 DUP1 SLOAD PUSH2 0x614 SWAP1 PUSH2 0x10A5 JUMP JUMPDEST DUP1 PUSH1 0x1F ADD PUSH1 0x20 DUP1 SWAP2 DIV MUL PUSH1 0x20 ADD PUSH1 0x40 MLOAD SWAP1 DUP2 ADD PUSH1 0x40 MSTORE DUP1 SWAP3 SWAP2 SWAP1 DUP2 DUP2 MSTORE PUSH1 0x20 ADD DUP3 DUP1 SLOAD PUSH2 0x640 SWAP1 PUSH2 0x10A5 JUMP JUMPDEST DUP1 ISZERO PUSH2 0x68D JUMPI DUP1 PUSH1 0x1F LT PUSH2 0x662 JUMPI PUSH2 0x100 DUP1 DUP4 SLOAD DIV MUL DUP4 MSTORE SWAP2 PUSH1 0x20 ADD SWAP2 PUSH2 0x68D JUMP JUMPDEST DUP3 ADD SWAP2 SWAP1 PUSH1 0x0 MSTORE PUSH1 0x20 PUSH1 0x0 KECCAK256 SWAP1 JUMPDEST DUP2 SLOAD DUP2 MSTORE SWAP1 PUSH1 0x1 ADD SWAP1 PUSH1 0x20 ADD DUP1 DUP4 GT PUSH2 0x670 JUMPI DUP3 SWAP1 SUB PUSH1 0x1F AND DUP3 ADD SWAP2 JUMPDEST POP POP POP POP POP DUP2 JUMP JUMPDEST PUSH1 0x4 DUP1 SLOAD PUSH2 0x6A2 SWAP1 PUSH2 0x10A5 JUMP JUMPDEST DUP1 PUSH1 0x1F ADD PUSH1 0x20 DUP1 SWAP2 DIV MUL PUSH1 0x20 ADD PUSH1 0x40 MLOAD SWAP1 DUP2 ADD PUSH1 0x40 MSTORE DUP1 SWAP3 SWAP2 SWAP1 DUP2 DUP2 MSTORE PUSH1 0x20 ADD DUP3 DUP1 SLOAD PUSH2 0x6CE SWAP1 PUSH2 0x10A5 JUMP JUMPDEST DUP1 ISZERO PUSH2 0x71B JUMPI DUP1 PUSH1 0x1F LT PUSH2 0x6F0 JUMPI PUSH2 0x100 DUP1 DUP4 SLOAD DIV MUL DUP4 MSTORE SWAP2 PUSH1 0x20 ADD SWAP2 PUSH2 0x71B JUMP JUMPDEST DUP3 ADD SWAP2 SWAP1 PUSH1 0x0 MSTORE PUSH1 0x20 PUSH1 0x0 KECCAK256 SWAP1 JUMPDEST DUP2 SLOAD DUP2 MSTORE SWAP1 PUSH1 0x1 ADD SWAP1 PUSH1 0x20 ADD DUP1 DUP4 GT PUSH2 0x6FE JUMPI DUP3 SWAP1 SUB PUSH1 0x1F AND DUP3 ADD SWAP2 JUMPDEST POP POP POP POP POP DUP2 JUMP JUMPDEST PUSH1 0x0 DUP2 DUP2 SLOAD DUP2 LT PUSH2 0x733 JUMPI PUSH1 0x0 DUP1 REVERT JUMPDEST SWAP1 PUSH1 0x0 MSTORE PUSH1 0x20 PUSH1 0x0 KECCAK256 SWAP1 PUSH1 0x5 MUL ADD PUSH1 0x0 SWAP2 POP SWAP1 POP DUP1 PUSH1 0x0 ADD DUP1 SLOAD PUSH2 0x756 SWAP1 PUSH2 0x10A5 JUMP JUMPDEST DUP1 PUSH1 0x1F ADD PUSH1 0x20 DUP1 SWAP2 DIV MUL PUSH1 0x20 ADD PUSH1 0x40 MLOAD SWAP1 DUP2 ADD PUSH1 0x40 MSTORE DUP1 SWAP3 SWAP2 SWAP1 DUP2 DUP2 MSTORE PUSH1 0x20 ADD DUP3 DUP1 SLOAD PUSH2 0x782 SWAP1 PUSH2 0x10A5 JUMP JUMPDEST DUP1 ISZERO PUSH2 0x7CF JUMPI DUP1 PUSH1 0x1F LT PUSH2 0x7A4 JUMPI PUSH2 0x100 DUP1 DUP4 SLOAD DIV MUL DUP4 MSTORE SWAP2 PUSH1 0x20 ADD SWAP2 PUSH2 0x7CF JUMP JUMPDEST DUP3 ADD SWAP2 SWAP1 PUSH1 0x0 MSTORE PUSH1 0x20 PUSH1 0x0 KECCAK256 SWAP1 JUMPDEST DUP2 SLOAD DUP2 MSTORE SWAP1 PUSH1 0x1 ADD SWAP1 PUSH1 0x20 ADD DUP1 DUP4 GT PUSH2 0x7B2 JUMPI DUP3 SWAP1 SUB PUSH1 0x1F AND DUP3 ADD SWAP2 JUMPDEST POP POP POP POP POP SWAP1 DUP1 PUSH1 0x1 ADD SLOAD SWAP1 DUP1 PUSH1 0x2 ADD PUSH1 0x0 SWAP1 SLOAD SWAP1 PUSH2 0x100 EXP SWAP1 DIV PUSH20 0xFFFFFFFFFFFFFFFFFFFFFFFFFFFFFFFFFFFFFFFF AND SWAP1 DUP1 PUSH1 0x2 ADD PUSH1 0x14 SWAP1 SLOAD SWAP1 PUSH2 0x100 EXP SWAP1 DIV PUSH1 0xFF AND SWAP1 DUP1 PUSH1 0x3 ADD SLOAD SWAP1 POP DUP6 JUMP JUMPDEST PUSH1 0x6 SLOAD DUP2 JUMP JUMPDEST PUSH1 0x1 PUSH1 0x0 SWAP1 SLOAD SWAP1 PUSH2 0x100 EXP SWAP1 DIV PUSH20 0xFFFFFFFFFFFFFFFFFFFFFFFFFFFFFFFFFFFFFFFF AND PUSH20 0xFFFFFFFFFFFFFFFFFFFFFFFFFFFFFFFFFFFFFFFF AND CALLER PUSH20 0xFFFFFFFFFFFFFFFFFFFFFFFFFFFFFFFFFFFFFFFF AND EQ PUSH2 0x87E JUMPI PUSH1 0x0 DUP1 REVERT JUMPDEST PUSH1 0x0 DUP1 PUSH1 0x1 DUP2 PUSH1 0x1 DUP2 SLOAD ADD DUP1 DUP3 SSTORE DUP1 SWAP2 POP POP SUB SWAP1 PUSH1 0x0 MSTORE PUSH1 0x20 PUSH1 0x0 KECCAK256 SWAP1 PUSH1 0x5 MUL ADD SWAP1 POP DUP4 DUP2 PUSH1 0x0 ADD SWAP1 DUP2 PUSH2 0x8B2 SWAP2 SWAP1 PUSH2 0x1282 JUMP JUMPDEST POP DUP3 DUP2 PUSH1 0x1 ADD DUP2 SWAP1 SSTORE POP DUP2 DUP2 PUSH1 0x2 ADD PUSH1 0x0 PUSH2 0x100 EXP DUP2 SLOAD DUP2 PUSH20 0xFFFFFFFFFFFFFFFFFFFFFFFFFFFFFFFFFFFFFFFF MUL NOT AND SWAP1 DUP4 PUSH20 0xFFFFFFFFFFFFFFFFFFFFFFFFFFFFFFFFFFFFFFFF AND MUL OR SWAP1 SSTORE POP PUSH1 0x0 DUP2 PUSH1 0x2 ADD PUSH1 0x14 PUSH2 0x100 EXP DUP2 SLOAD DUP2 PUSH1 0xFF MUL NOT AND SWAP1 DUP4 ISZERO ISZERO MUL OR SWAP1 SSTORE POP PUSH1 0x0 DUP2 PUSH1 0x3 ADD DUP2 SWAP1 SSTORE POP POP POP POP POP JUMP JUMPDEST PUSH1 0x2 SLOAD DUP2 JUMP JUMPDEST PUSH1 0x2 SLOAD CALLVALUE LT ISZERO PUSH2 0x941 JUMPI PUSH1 0x0 DUP1 REVERT JUMPDEST PUSH1 0x1 PUSH1 0x5 PUSH1 0x0 CALLER PUSH20 0xFFFFFFFFFFFFFFFFFFFFFFFFFFFFFFFFFFFFFFFF AND PUSH20 0xFFFFFFFFFFFFFFFFFFFFFFFFFFFFFFFFFFFFFFFF AND DUP2 MSTORE PUSH1 0x20 ADD SWAP1 DUP2 MSTORE PUSH1 0x20 ADD PUSH1 0x0 KECCAK256 PUSH1 0x0 PUSH2 0x100 EXP DUP2 SLOAD DUP2 PUSH1 0xFF MUL NOT AND SWAP1 DUP4 ISZERO ISZERO MUL OR SWAP1 SSTORE POP PUSH1 0x6 PUSH1 0x0 DUP2 SLOAD DUP1 SWAP3 SWAP2 SWAP1 PUSH2 0x9AC SWAP1 PUSH2 0x1354 JUMP JUMPDEST SWAP2 SWAP1 POP SSTORE POP JUMP JUMPDEST PUSH1 0x0 DUP1 DUP3 DUP2 SLOAD DUP2 LT PUSH2 0x9C8 JUMPI PUSH2 0x9C7 PUSH2 0xFB8 JUMP JUMPDEST JUMPDEST SWAP1 PUSH1 0x0 MSTORE PUSH1 0x20 PUSH1 0x0 KECCAK256 SWAP1 PUSH1 0x5 MUL ADD SWAP1 POP PUSH1 0x5 PUSH1 0x0 CALLER PUSH20 0xFFFFFFFFFFFFFFFFFFFFFFFFFFFFFFFFFFFFFFFF AND PUSH20 0xFFFFFFFFFFFFFFFFFFFFFFFFFFFFFFFFFFFFFFFF AND DUP2 MSTORE PUSH1 0x20 ADD SWAP1 DUP2 MSTORE PUSH1 0x20 ADD PUSH1 0x0 KECCAK256 PUSH1 0x0 SWAP1 SLOAD SWAP1 PUSH2 0x100 EXP SWAP1 DIV PUSH1 0xFF AND PUSH2 0xA2E JUMPI PUSH1 0x0 DUP1 REVERT JUMPDEST DUP1 PUSH1 0x4 ADD PUSH1 0x0 CALLER PUSH20 0xFFFFFFFFFFFFFFFFFFFFFFFFFFFFFFFFFFFFFFFF AND PUSH20 0xFFFFFFFFFFFFFFFFFFFFFFFFFFFFFFFFFFFFFFFF AND DUP2 MSTORE PUSH1 0x20 ADD SWAP1 DUP2 MSTORE PUSH1 0x20 ADD PUSH1 0x0 KECCAK256 PUSH1 0x0 SWAP1 SLOAD SWAP1 PUSH2 0x100 EXP SWAP1 DIV PUSH1 0xFF AND ISZERO PUSH2 0xA87 JUMPI PUSH1 0x0 DUP1 REVERT JUMPDEST PUSH1 0x1 DUP2 PUSH1 0x4 ADD PUSH1 0x0 CALLER PUSH20 0xFFFFFFFFFFFFFFFFFFFFFFFFFFFFFFFFFFFFFFFF AND PUSH20 0xFFFFFFFFFFFFFFFFFFFFFFFFFFFFFFFFFFFFFFFF AND DUP2 MSTORE PUSH1 0x20 ADD SWAP1 DUP2 MSTORE PUSH1 0x20 ADD PUSH1 0x0 KECCAK256 PUSH1 0x0 PUSH2 0x100 EXP DUP2 SLOAD DUP2 PUSH1 0xFF MUL NOT AND SWAP1 DUP4 ISZERO ISZERO MUL OR SWAP1 SSTORE POP DUP1 PUSH1 0x3 ADD PUSH1 0x0 DUP2 SLOAD DUP1 SWAP3 SWAP2 SWAP1 PUSH2 0xAF6 SWAP1 PUSH2 0x1354 JUMP JUMPDEST SWAP2 SWAP1 POP SSTORE POP POP POP JUMP JUMPDEST PUSH1 0x0 PUSH1 0x40 MLOAD SWAP1 POP SWAP1 JUMP JUMPDEST PUSH1 0x0 DUP1 REVERT JUMPDEST PUSH1 0x0 DUP1 REVERT JUMPDEST PUSH1 0x0 DUP2 SWAP1 POP SWAP2 SWAP1 POP JUMP JUMPDEST PUSH2 0xB26 DUP2 PUSH2 0xB13 JUMP JUMPDEST DUP2 EQ PUSH2 0xB31 JUMPI PUSH1 0x0 DUP1 REVERT JUMPDEST POP JUMP JUMPDEST PUSH1 0x0 DUP2 CALLDATALOAD SWAP1 POP PUSH2 0xB43 DUP2 PUSH2 0xB1D JUMP JUMPDEST SWAP3 SWAP2 POP POP JUMP JUMPDEST PUSH1 0x0 PUSH1 0x20 DUP3 DUP5 SUB SLT ISZERO PUSH2 0xB5F JUMPI PUSH2 0xB5E PUSH2 0xB09 JUMP JUMPDEST JUMPDEST PUSH1 0x0 PUSH2 0xB6D DUP5 DUP3 DUP6 ADD PUSH2 0xB34 JUMP JUMPDEST SWAP2 POP POP SWAP3 SWAP2 POP POP JUMP JUMPDEST PUSH1 0x0 PUSH20 0xFFFFFFFFFFFFFFFFFFFFFFFFFFFFFFFFFFFFFFFF DUP3 AND SWAP1 POP SWAP2 SWAP1 POP JUMP JUMPDEST PUSH1 0x0 PUSH2 0xBA1 DUP3 PUSH2 0xB76 JUMP JUMPDEST SWAP1 POP SWAP2 SWAP1 POP JUMP JUMPDEST PUSH2 0xBB1 DUP2 PUSH2 0xB96 JUMP JUMPDEST DUP2 EQ PUSH2 0xBBC JUMPI PUSH1 0x0 DUP1 REVERT JUMPDEST POP JUMP JUMPDEST PUSH1 0x0 DUP2 CALLDATALOAD SWAP1 POP PUSH2 0xBCE DUP2 PUSH2 0xBA8 JUMP JUMPDEST SWAP3 SWAP2 POP POP JUMP JUMPDEST PUSH1 0x0 PUSH1 0x20 DUP3 DUP5 SUB SLT ISZERO PUSH2 0xBEA JUMPI PUSH2 0xBE9 PUSH2 0xB09 JUMP JUMPDEST JUMPDEST PUSH1 0x0 PUSH2 0xBF8 DUP5 DUP3 DUP6 ADD PUSH2 0xBBF JUMP JUMPDEST SWAP2 POP POP SWAP3 SWAP2 POP POP JUMP JUMPDEST PUSH1 0x0 DUP2 ISZERO ISZERO SWAP1 POP SWAP2 SWAP1 POP JUMP JUMPDEST PUSH2 0xC16 DUP2 PUSH2 0xC01 JUMP JUMPDEST DUP3 MSTORE POP POP JUMP JUMPDEST PUSH1 0x0 PUSH1 0x20 DUP3 ADD SWAP1 POP PUSH2 0xC31 PUSH1 0x0 DUP4 ADD DUP5 PUSH2 0xC0D JUMP JUMPDEST SWAP3 SWAP2 POP POP JUMP JUMPDEST PUSH2 0xC40 DUP2 PUSH2 0xB13 JUMP JUMPDEST DUP3 MSTORE POP POP JUMP JUMPDEST PUSH1 0x0 PUSH1 0x20 DUP3 ADD SWAP1 POP PUSH2 0xC5B PUSH1 0x0 DUP4 ADD DUP5 PUSH2 0xC37 JUMP JUMPDEST SWAP3 SWAP2 POP POP JUMP JUMPDEST PUSH2 0xC6A DUP2 PUSH2 0xB96 JUMP JUMPDEST DUP3 MSTORE POP POP JUMP JUMPDEST PUSH1 0x0 DUP2 MLOAD SWAP1 POP SWAP2 SWAP1 POP JUMP JUMPDEST PUSH1 0x0 DUP3 DUP3 MSTORE PUSH1 0x20 DUP3 ADD SWAP1 POP SWAP3 SWAP2 POP POP JUMP JUMPDEST PUSH1 0x0 JUMPDEST DUP4 DUP2 LT ISZERO PUSH2 0xCAA JUMPI DUP1 DUP3 ADD MLOAD DUP2 DUP5 ADD MSTORE PUSH1 0x20 DUP2 ADD SWAP1 POP PUSH2 0xC8F JUMP JUMPDEST PUSH1 0x0 DUP5 DUP5 ADD MSTORE POP POP POP POP JUMP JUMPDEST PUSH1 0x0 PUSH1 0x1F NOT PUSH1 0x1F DUP4 ADD AND SWAP1 POP SWAP2 SWAP1 POP JUMP JUMPDEST PUSH1 0x0 PUSH2 0xCD2 DUP3 PUSH2 0xC70 JUMP JUMPDEST PUSH2 0xCDC DUP2 DUP6 PUSH2 0xC7B JUMP JUMPDEST SWAP4 POP PUSH2 0xCEC DUP2 DUP6 PUSH1 0x20 DUP7 ADD PUSH2 0xC8C JUMP JUMPDEST PUSH2 0xCF5 DUP2 PUSH2 0xCB6 JUMP JUMPDEST DUP5 ADD SWAP2 POP POP SWAP3 SWAP2 POP POP JUMP JUMPDEST PUSH1 0x0 PUSH1 0xE0 DUP3 ADD SWAP1 POP PUSH2 0xD15 PUSH1 0x0 DUP4 ADD DUP11 PUSH2 0xC37 JUMP JUMPDEST PUSH2 0xD22 PUSH1 0x20 DUP4 ADD DUP10 PUSH2 0xC37 JUMP JUMPDEST PUSH2 0xD2F PUSH1 0x40 DUP4 ADD DUP9 PUSH2 0xC37 JUMP JUMPDEST PUSH2 0xD3C PUSH1 0x60 DUP4 ADD DUP8 PUSH2 0xC37 JUMP JUMPDEST PUSH2 0xD49 PUSH1 0x80 DUP4 ADD DUP7 PUSH2 0xC61 JUMP JUMPDEST DUP2 DUP2 SUB PUSH1 0xA0 DUP4 ADD MSTORE PUSH2 0xD5B DUP2 DUP6 PUSH2 0xCC7 JUMP JUMPDEST SWAP1 POP DUP2 DUP2 SUB PUSH1 0xC0 DUP4 ADD MSTORE PUSH2 0xD6F DUP2 DUP5 PUSH2 0xCC7 JUMP JUMPDEST SWAP1 POP SWAP9 SWAP8 POP POP POP POP POP POP POP POP JUMP JUMPDEST PUSH1 0x0 PUSH1 0x20 DUP3 ADD SWAP1 POP PUSH2 0xD92 PUSH1 0x0 DUP4 ADD DUP5 PUSH2 0xC61 JUMP JUMPDEST SWAP3 SWAP2 POP POP JUMP JUMPDEST PUSH1 0x0 PUSH1 0x20 DUP3 ADD SWAP1 POP DUP2 DUP2 SUB PUSH1 0x0 DUP4 ADD MSTORE PUSH2 0xDB2 DUP2 DUP5 PUSH2 0xCC7 JUMP JUMPDEST SWAP1 POP SWAP3 SWAP2 POP POP JUMP JUMPDEST PUSH1 0x0 PUSH1 0xA0 DUP3 ADD SWAP1 POP DUP2 DUP2 SUB PUSH1 0x0 DUP4 ADD MSTORE PUSH2 0xDD4 DUP2 DUP9 PUSH2 0xCC7 JUMP JUMPDEST SWAP1 POP PUSH2 0xDE3 PUSH1 0x20 DUP4 ADD DUP8 PUSH2 0xC37 JUMP JUMPDEST PUSH2 0xDF0 PUSH1 0x40 DUP4 ADD DUP7 PUSH2 0xC61 JUMP JUMPDEST PUSH2 0xDFD PUSH1 0x60 DUP4 ADD DUP6 PUSH2 0xC0D JUMP JUMPDEST PUSH2 0xE0A PUSH1 0x80 DUP4 ADD DUP5 PUSH2 0xC37 JUMP JUMPDEST SWAP7 SWAP6 POP POP POP POP POP POP JUMP JUMPDEST PUSH1 0x0 DUP1 REVERT JUMPDEST PUSH1 0x0 DUP1 REVERT JUMPDEST PUSH32 0x4E487B7100000000000000000000000000000000000000000000000000000000 PUSH1 0x0 MSTORE PUSH1 0x41 PUSH1 0x4 MSTORE PUSH1 0x24 PUSH1 0x0 REVERT JUMPDEST PUSH2 0xE56 DUP3 PUSH2 0xCB6 JUMP JUMPDEST DUP2 ADD DUP2 DUP2 LT PUSH8 0xFFFFFFFFFFFFFFFF DUP3 GT OR ISZERO PUSH2 0xE75 JUMPI PUSH2 0xE74 PUSH2 0xE1E JUMP JUMPDEST JUMPDEST DUP1 PUSH1 0x40 MSTORE POP POP POP JUMP JUMPDEST PUSH1 0x0 PUSH2 0xE88 PUSH2 0xAFF JUMP JUMPDEST SWAP1 POP PUSH2 0xE94 DUP3 DUP3 PUSH2 0xE4D JUMP JUMPDEST SWAP2 SWAP1 POP JUMP JUMPDEST PUSH1 0x0 PUSH8 0xFFFFFFFFFFFFFFFF DUP3 GT ISZERO PUSH2 0xEB4 JUMPI PUSH2 0xEB3 PUSH2 0xE1E JUMP JUMPDEST JUMPDEST PUSH2 0xEBD DUP3 PUSH2 0xCB6 JUMP JUMPDEST SWAP1 POP PUSH1 0x20 DUP2 ADD SWAP1 POP SWAP2 SWAP1 POP JUMP JUMPDEST DUP3 DUP2 DUP4 CALLDATACOPY PUSH1 0x0 DUP4 DUP4 ADD MSTORE POP POP POP JUMP JUMPDEST PUSH1 0x0 PUSH2 0xEEC PUSH2 0xEE7 DUP5 PUSH2 0xE99 JUMP JUMPDEST PUSH2 0xE7E JUMP JUMPDEST SWAP1 POP DUP3 DUP2 MSTORE PUSH1 0x20 DUP2 ADD DUP5 DUP5 DUP5 ADD GT ISZERO PUSH2 0xF08 JUMPI PUSH2 0xF07 PUSH2 0xE19 JUMP JUMPDEST JUMPDEST PUSH2 0xF13 DUP5 DUP3 DUP6 PUSH2 0xECA JUMP JUMPDEST POP SWAP4 SWAP3 POP POP POP JUMP JUMPDEST PUSH1 0x0 DUP3 PUSH1 0x1F DUP4 ADD SLT PUSH2 0xF30 JUMPI PUSH2 0xF2F PUSH2 0xE14 JUMP JUMPDEST JUMPDEST DUP2 CALLDATALOAD PUSH2 0xF40 DUP5 DUP3 PUSH1 0x20 DUP7 ADD PUSH2 0xED9 JUMP JUMPDEST SWAP2 POP POP SWAP3 SWAP2 POP POP JUMP JUMPDEST PUSH1 0x0 DUP1 PUSH1 0x0 PUSH1 0x60 DUP5 DUP7 SUB SLT ISZERO PUSH2 0xF62 JUMPI PUSH2 0xF61 PUSH2 0xB09 JUMP JUMPDEST JUMPDEST PUSH1 0x0 DUP5 ADD CALLDATALOAD PUSH8 0xFFFFFFFFFFFFFFFF DUP2 GT ISZERO PUSH2 0xF80 JUMPI PUSH2 0xF7F PUSH2 0xB0E JUMP JUMPDEST JUMPDEST PUSH2 0xF8C DUP7 DUP3 DUP8 ADD PUSH2 0xF1B JUMP JUMPDEST SWAP4 POP POP PUSH1 0x20 PUSH2 0xF9D DUP7 DUP3 DUP8 ADD PUSH2 0xB34 JUMP JUMPDEST SWAP3 POP POP PUSH1 0x40 PUSH2 0xFAE DUP7 DUP3 DUP8 ADD PUSH2 0xBBF JUMP JUMPDEST SWAP2 POP POP SWAP3 POP SWAP3 POP SWAP3 JUMP JUMPDEST PUSH32 0x4E487B7100000000000000000000000000000000000000000000000000000000 PUSH1 0x0 MSTORE PUSH1 0x32 PUSH1 0x4 MSTORE PUSH1 0x24 PUSH1 0x0 REVERT JUMPDEST PUSH32 0x4E487B7100000000000000000000000000000000000000000000000000000000 PUSH1 0x0 MSTORE PUSH1 0x12 PUSH1 0x4 MSTORE PUSH1 0x24 PUSH1 0x0 REVERT JUMPDEST PUSH32 0x4E487B7100000000000000000000000000000000000000000000000000000000 PUSH1 0x0 MSTORE PUSH1 0x11 PUSH1 0x4 MSTORE PUSH1 0x24 PUSH1 0x0 REVERT JUMPDEST PUSH1 0x0 PUSH2 0x1050 DUP3 PUSH2 0xB13 JUMP JUMPDEST SWAP2 POP PUSH2 0x105B DUP4 PUSH2 0xB13 JUMP JUMPDEST SWAP3 POP DUP3 PUSH2 0x106B JUMPI PUSH2 0x106A PUSH2 0xFE7 JUMP JUMPDEST JUMPDEST DUP3 DUP3 DIV SWAP1 POP SWAP3 SWAP2 POP POP JUMP JUMPDEST PUSH32 0x4E487B7100000000000000000000000000000000000000000000000000000000 PUSH1 0x0 MSTORE PUSH1 0x22 PUSH1 0x4 MSTORE PUSH1 0x24 PUSH1 0x0 REVERT JUMPDEST PUSH1 0x0 PUSH1 0x2 DUP3 DIV SWAP1 POP PUSH1 0x1 DUP3 AND DUP1 PUSH2 0x10BD JUMPI PUSH1 0x7F DUP3 AND SWAP2 POP JUMPDEST PUSH1 0x20 DUP3 LT DUP2 SUB PUSH2 0x10D0 JUMPI PUSH2 0x10CF PUSH2 0x1076 JUMP JUMPDEST JUMPDEST POP SWAP2 SWAP1 POP JUMP JUMPDEST PUSH1 0x0 DUP2 SWAP1 POP DUP2 PUSH1 0x0 MSTORE PUSH1 0x20 PUSH1 0x0 KECCAK256 SWAP1 POP SWAP2 SWAP1 POP JUMP JUMPDEST PUSH1 0x0 PUSH1 0x20 PUSH1 0x1F DUP4 ADD DIV SWAP1 POP SWAP2 SWAP1 POP JUMP JUMPDEST PUSH1 0x0 DUP3 DUP3 SHL SWAP1 POP SWAP3 SWAP2 POP POP JUMP JUMPDEST PUSH1 0x0 PUSH1 0x8 DUP4 MUL PUSH2 0x1138 PUSH32 0xFFFFFFFFFFFFFFFFFFFFFFFFFFFFFFFFFFFFFFFFFFFFFFFFFFFFFFFFFFFFFFFF DUP3 PUSH2 0x10FB JUMP JUMPDEST PUSH2 0x1142 DUP7 DUP4 PUSH2 0x10FB JUMP JUMPDEST SWAP6 POP DUP1 NOT DUP5 AND SWAP4 POP DUP1 DUP7 AND DUP5 OR SWAP3 POP POP POP SWAP4 SWAP3 POP POP POP JUMP JUMPDEST PUSH1 0x0 DUP2 SWAP1 POP SWAP2 SWAP1 POP JUMP JUMPDEST PUSH1 0x0 PUSH2 0x117F PUSH2 0x117A PUSH2 0x1175 DUP5 PUSH2 0xB13 JUMP JUMPDEST PUSH2 0x115A JUMP JUMPDEST PUSH2 0xB13 JUMP JUMPDEST SWAP1 POP SWAP2 SWAP1 POP JUMP JUMPDEST PUSH1 0x0 DUP2 SWAP1 POP SWAP2 SWAP1 POP JUMP JUMPDEST PUSH2 0x1199 DUP4 PUSH2 0x1164 JUMP JUMPDEST PUSH2 0x11AD PUSH2 0x11A5 DUP3 PUSH2 0x1186 JUMP JUMPDEST DUP5 DUP5 SLOAD PUSH2 0x1108 JUMP JUMPDEST DUP3 SSTORE POP POP POP POP JUMP JUMPDEST PUSH1 0x0 SWAP1 JUMP JUMPDEST PUSH2 0x11C2 PUSH2 0x11B5 JUMP JUMPDEST PUSH2 0x11CD DUP2 DUP5 DUP5 PUSH2 0x1190 JUMP JUMPDEST POP POP POP JUMP JUMPDEST JUMPDEST DUP2 DUP2 LT ISZERO PUSH2 0x11F1 JUMPI PUSH2 0x11E6 PUSH1 0x0 DUP3 PUSH2 0x11BA JUMP JUMPDEST PUSH1 0x1 DUP2 ADD SWAP1 POP PUSH2 0x11D3 JUMP JUMPDEST POP POP JUMP JUMPDEST PUSH1 0x1F DUP3 GT ISZERO PUSH2 0x1236 JUMPI PUSH2 0x1207 DUP2 PUSH2 0x10D6 JUMP JUMPDEST PUSH2 0x1210 DUP5 PUSH2 0x10EB JUMP JUMPDEST DUP2 ADD PUSH1 0x20 DUP6 LT ISZERO PUSH2 0x121F JUMPI DUP2 SWAP1 POP JUMPDEST PUSH2 0x1233 PUSH2 0x122B DUP6 PUSH2 0x10EB JUMP JUMPDEST DUP4 ADD DUP3 PUSH2 0x11D2 JUMP JUMPDEST POP POP JUMPDEST POP POP POP JUMP JUMPDEST PUSH1 0x0 DUP3 DUP3 SHR SWAP1 POP SWAP3 SWAP2 POP POP JUMP JUMPDEST PUSH1 0x0 PUSH2 0x1259 PUSH1 0x0 NOT DUP5 PUSH1 0x8 MUL PUSH2 0x123B JUMP JUMPDEST NOT DUP1 DUP4 AND SWAP2 POP POP SWAP3 SWAP2 POP POP JUMP JUMPDEST PUSH1 0x0 PUSH2 0x1272 DUP4 DUP4 PUSH2 0x1248 JUMP JUMPDEST SWAP2 POP DUP3 PUSH1 0x2 MUL DUP3 OR SWAP1 POP SWAP3 SWAP2 POP POP JUMP JUMPDEST PUSH2 0x128B DUP3 PUSH2 0xC70 JUMP JUMPDEST PUSH8 0xFFFFFFFFFFFFFFFF DUP2 GT ISZERO PUSH2 0x12A4 JUMPI PUSH2 0x12A3 PUSH2 0xE1E JUMP JUMPDEST JUMPDEST PUSH2 0x12AE DUP3 SLOAD PUSH2 0x10A5 JUMP JUMPDEST PUSH2 0x12B9 DUP3 DUP3 DUP6 PUSH2 0x11F5 JUMP JUMPDEST PUSH1 0x0 PUSH1 0x20 SWAP1 POP PUSH1 0x1F DUP4 GT PUSH1 0x1 DUP2 EQ PUSH2 0x12EC JUMPI PUSH1 0x0 DUP5 ISZERO PUSH2 0x12DA JUMPI DUP3 DUP8 ADD MLOAD SWAP1 POP JUMPDEST PUSH2 0x12E4 DUP6 DUP3 PUSH2 0x1266 JUMP JUMPDEST DUP7 SSTORE POP PUSH2 0x134C JUMP JUMPDEST PUSH1 0x1F NOT DUP5 AND PUSH2 0x12FA DUP7 PUSH2 0x10D6 JUMP JUMPDEST PUSH1 0x0 JUMPDEST DUP3 DUP2 LT ISZERO PUSH2 0x1322 JUMPI DUP5 DUP10 ADD MLOAD DUP3 SSTORE PUSH1 0x1 DUP3 ADD SWAP2 POP PUSH1 0x20 DUP6 ADD SWAP5 POP PUSH1 0x20 DUP2 ADD SWAP1 POP PUSH2 0x12FD JUMP JUMPDEST DUP7 DUP4 LT ISZERO PUSH2 0x133F JUMPI DUP5 DUP10 ADD MLOAD PUSH2 0x133B PUSH1 0x1F DUP10 AND DUP3 PUSH2 0x1248 JUMP JUMPDEST DUP4 SSTORE POP JUMPDEST PUSH1 0x1 PUSH1 0x2 DUP9 MUL ADD DUP9 SSTORE POP POP POP JUMPDEST POP POP POP POP POP POP JUMP JUMPDEST PUSH1 0x0 PUSH2 0x135F DUP3 PUSH2 0xB13 JUMP JUMPDEST SWAP2 POP PUSH32 0xFFFFFFFFFFFFFFFFFFFFFFFFFFFFFFFFFFFFFFFFFFFFFFFFFFFFFFFFFFFFFFFF DUP3 SUB PUSH2 0x1391 JUMPI PUSH2 0x1390 PUSH2 0x1016 JUMP JUMPDEST JUMPDEST PUSH1 0x1 DUP3 ADD SWAP1 POP SWAP2 SWAP1 POP JUMP INVALID LOG2 PUSH5 0x6970667358 0x22 SLT KECCAK256 0x2C 0x1E SSTORE 0xC8 LT 0x2A 0xE1 0x4B 0xBD 0xF8 0xF8 LOG0 0xA7 0xCF MSTORE 0xFB 0xD4 0xC1 0x49 0xB6 JUMPI 0xC3 CHAINID PUSH17 0x6AA23188E1A39EDF64736F6C6343000811 STOP CALLER LOG2 PUSH5 0x6970667358 0x22 SLT KECCAK256 0x4C PUSH28 0x2822D24AD158A2CA1274F332B799A8D224300EB894E5752AF734B6D3 PUSH29 0x1364736F6C634300081100330000000000000000000000000000000000 "}}}